:020000040800F2
:1000000058040020010100086D0200086502000884
:100010006902000849010008BB0C0008000000004C
:10002000000000000000000000000000510800086F
:100030004D01000800000000850500085D0900086A
:100040001B0100081B0100081B0100081B01000820
:100050001B0100081B0100081B0100081B01000810
:100060001B0100081B0100081B0100081B01000800
:100070001B0100081B0100081B0100081B010008F0
:100080001B0100081B0100081B0100081B010008E0
:100090001B0100081B0100081B0100081B010008D0
:1000A0001B0100081B0100081B0100081B010008C0
:1000B000C10900081B0100081B0100081B01000802
:1000C0001B0100081B0100081B0100081B010008A0
:1000D0001B010008A90A00081B0100081B010008F9
:1000E0001B0100081B0100081B010008DFF80CD0F1
:1000F00000F018F800480047210D000858040020BF
:100100000648804706480047FEE7FEE7FEE7FEE7B1
:10011000FEE7FEE7FEE7FEE7FEE7FEE7610900080F
:10012000ED000008064C074D06E0E06840F00103D2
:1001300094E8070098471034AC42F6D3FFF7DAFF93
:10014000700D0008900D000800BFFEE770472DE914
:10015000F04102460025002600200023002400274D
:1001600091F803C00CF00F0591F803C00CF0100CCF
:10017000BCF1000F03D091F802C04CEA050591F8DC
:1001800000C0BCF1000F31D0146800202BE04FF00C
:10019000010C0CFA00F3B1F800C00CEA03069E4211
:1001A00020D183004FF00F0C0CFA03F7BC4305FA83
:1001B00003FC4CEA040491F803C0BCF1280F06D1FB
:1001C0004FF0010C0CFA00FCC2F814C00AE091F8E0
:1001D00003C0BCF1480F05D14FF0010C0CFA00FC34
:1001E000C2F810C0401C0828D1D31460B1F800C078
:1001F000BCF1FF0F34DD546800202EE000F1080C44
:100200004FF0010808FA0CF3B1F800C00CEA03063D
:100210009E4221D183004FF00F0C0CFA03F7BC4330
:1002200005FA03FC4CEA040491F803C0BCF1280F62
:1002300005D100F1080C08FA0CF8C2F8148091F806
:1002400003C0BCF1480F07D100F1080C4FF00108C2
:1002500008FA0CF8C2F81080401C0828CED354606D
:10026000BDE8F08100BFFEE700BFFEE77047000079
:100270001CB511A103C9CDE90001102000F09CFAC2
:1002800005226946302000F005F905226946102054
:1002900000F06EF8002406E01DF80400A52800D048
:1002A00003E0601CC4B2052CF6DB00BF052C01D0B6
:1002B00001201CBD0020FCE7A5A5A5A5A500000008
:1002C00008B50121042000F05FF90820ADF8000016
:1002D00010208DF8030003208DF8020069460B48BA
:1002E000FFF735FF0420ADF8000048208DF803002B
:1002F00069460648FFF72BFF00F0D0F900200449BB
:10030000086001200349C1F8900108BD00080140C0
:100310008C0121420000214210B5002011490860E3
:10032000052211492A2000F0B5F80121212000F012
:10033000CFF80121222000F0CBF82821252000F061
:10034000C7F82021312000F0C3F80F21262000F04B
:10035000BFF80F21202000F0BBF801200349C1F8AD
:100360008C0110BD8C012142690D00080000214262
:100370002DE9F04107460D46164600200A4908605F
:10038000384600F0FDF98046002405E0FF2000F02B
:10039000F7F92855601CC4B2B442F7DB01200249CA
:1003A00008604046BDE8F0819001214270B50446E6
:1003B000002007490860204600F0E2F9FF2000F025
:1003C000DFF9054601200349C1F89001284670BDB8
:1003D000900121420000214270B50446102000F037
:1003E000EBF90720FFF7E2FF05462946272000F03A
:1003F0006FF805F0400050B1202221466120FFF740
:10040000B7FFFF21E22000F063F8012070BD00205B
:10041000FCE7000010B500240BA000F051FCFFF732
:100420004FFFFFF725FF04461CB90EA000F048FC63
:1004300002E010A000F044FC0024FFF76DFF0FA0C5
:1004400000F03EFC10BD00004E52463234303120E8
:10045000636F6E666967726174696F6E2E2E2E2EE1
:100460000D0A00007375636365737366756C0D0A1E
:100470000000000066616C73650D0A005278204D23
:100480006F646520636F6E666967726174696F6E11
:100490000D0A00002DE9F04107460C4615460020E4
:1004A0000A490860384600F06BF98046002605E0EE
:1004B00014F8010B00F064F9701CC6B2AE42F7DB11
:1004C0000120024908604046BDE8F08190012142C8
:1004D00070B505460C46002007490860284600F024
:1004E0004FF90646204600F04BF901200349C1F8B8
:1004F0009001304670BD0000900121420000214271
:1005000070B5002100230F22C47804B3154C246871
:1005100004F4E064C4F5E064210AC1F10403CA40B4
:10052000447804FA03F184781440214309010E4C05
:100530000678A155047804F01F050124AC40057825
:100540006D11AD0005F1E025C5F8004109E0047822
:1005500004F01F050124AC40044D0678761145F8DF
:10056000264070BD0CED00E000E400E080E100E01A
:1005700002490143024A1160704700000000FA0579
:100580000CED00E07047000029B1064A9269024371
:10059000044B9A6104E0034A92698243014B9A61D9
:1005A000704700000010024029B1064AD268024399
:1005B000044BDA6004E0034AD2688243014BDA60FC
:1005C000704700000010024030B5002100220024D6
:1005D00000232D4D6D6805F00C0121B1042905D0D3
:1005E000082923D105E0294D056022E0274D05604B
:1005F0001FE0254D6D6805F47012234D6D6805F4FC
:100600008034022505EB92421CB9214D554305600B
:100610000BE01D4D6D6805F400351DB11C4D5543B3
:10062000056002E0194D5543056002E0174D056075
:1006300000BF00BF144D6D6805F0F0010909154DAC
:100640006B5C0568DD4045600F4D6D6805F4E06149
:10065000090A104D6B5C4568DD4085600A4D6D6888
:1006600005F46051C90A0B4D6B5C4568DD40C560FF
:10067000054D6D6805F44041890B074D6B5CC568FD
:10068000B5FBF3F5056130BD0010024000127A00A1
:1006900000093D00000000201000002000B587B0D8
:1006A00001210420FFF770FF01210803FFF76CFF11
:1006B0001020ADF818008DF81B0003208DF81A00EB
:1006C00006A92D48FFF743FD2020ADF8180018209B
:1006D0008DF81B0003208DF81A0006A92648FFF7A5
:1006E00036FD8020ADF8180018208DF81B0003207F
:1006F0008DF81A0006A92048FFF729FD4020ADF823
:10070000180004208DF81B0003208DF81A0006A99C
:100710001948FFF71CFD01210803FFF745FF0021E1
:100720004FF48050FFF740FF0020ADF804004FF475
:100730008270ADF806000020ADF80800ADF80A00A0
:10074000ADF80C004FF40070ADF80E003820ADF895
:1007500010000020ADF812000720ADF8140001A928
:10076000064800F057F80121044800F039F8FF204E
:1007700000F006F807B000BD00080140003001405D
:1007800010B5044600BF02210A4800F035F80028E1
:10079000F9D02146074800F03BF800BF0121054889
:1007A00000F02AF80028F9D0024800F02EF8C0B274
:1007B00010BD00000030014010B504460748008815
:1007C0004FF6C77108400549088008460088204355
:1007D00008800121014800F003F810BD00300140FD
:1007E00021B1028842F04002028004E002884FF604
:1007F000BF731A40028070470246002013890B40E5
:100800000BB1012000E00020704701468889704745
:100810008181704710B50022028802F441520B8892
:100820004C8823438C882343CC8823430C8923435F
:100830004C8923438C892343CC8923431A43028068
:10084000838B4FF2FF74234083830B8A038210BD96
:100850007047000010B504462146054800F029FA0B
:1008600000BF8021024800F056F90028F9D010BDE1
:100870000038014010B500F001F810BD0CB50020A3
:10088000019000903348006840F48030314908609E
:1008900000BF3048006800F4003000900198401C10
:1008A0000190009818B90198B0F5A06FF1D12948CE
:1008B000006800F4003010B10120009001E0002039
:1008C00000900098012843D12348006840F01000B0
:1008D000214908600846006820F0030008600846C7
:1008E000006840F0020008601A48406819494860F2
:1008F0000846406848600846406840F480604860A8
:100900000846406820F47C1048600846406840F47F
:10091000E81048600846006840F08070086000BF3A
:100920000C48006800F000700028F9D009484068C1
:1009300020F00300074948600846406840F0020084
:10094000486000BF0348406800F00C000828F9D157
:100950000CBD000000100240002002407047000063
:1009600010B51348006840F00100114908600846BE
:100970004068104908400E494860084600680E4922
:1009800008400B4908600846006820F48020086091
:100990000846406820F4FE0048604FF41F0088605D
:1009A000FFF768FF4FF000600449086010BD0000C9
:1009B000001002400000FFF8FFFFF6FE08ED00E027
:1009C00010B50121880700F001F810BD30B50246CE
:1009D000002000230024158A05EA0103958905EA11
:1009E000010413B10CB1012000E0002030BD000073
:1009F00000B587B001210420FFF7C6FD012188035F
:100A0000FFF7C2FD4FF40070ADF8180018208DF804
:100A10001B0003208DF81A0006A92148FFF797FB59
:100A20004FF48060ADF8180048208DF81B000320BB
:100A30008DF81A0006A91A48FFF789FB4FF4E13038
:100A400002900020ADF80C00ADF80E00ADF81000DB
:100A50000C20ADF812000020ADF8140002A91148D6
:100A600000F0B6F8012240F224410E4800F08AF866
:100A700001210C4800F043F84FF4A060FFF778FD27
:100A800025208DF8040001208DF807008DF8050061
:100A90008DF8060001A8FFF733FD07B000BD000088
:100AA000000801400038014010B540F225510948C6
:100AB00000F03EF801280CD1064800F0F5F8064990
:100AC000087001200549087040F22551014800F0E6
:100AD00007F810BD00380140240000201400002059
:100AE00010B50022002340F66A14A14200D100BFD5
:100AF0000A1201249440A3B2DC43048010BD21B14A
:100B0000828942F40052828104E082894DF6FF73AB
:100B10001A408281704702460020B1F5007F00D163
:100B200000BF13880B400BB1012000E0002070478C
:100B300070B50246002400230025002040F66A1606
:100B4000B14200D100BFC1F3421501F01F030126DD
:100B500006FA03F3012D02D19689334006E0022DF7
:100B600002D1168A334001E0968A33400C120126E6
:100B700006FA04F41688344013B10CB1012000E0E9
:100B8000002070BDF0B5034600240026002500209B
:100B900040F66A17B94200D100BF1846C1F34214AB
:100BA00001F01F06012707FA06F5012C01D10C30D0
:100BB00004E0022C01D1103000E014301AB10768B3
:100BC0002F43076002E00768AF430760F0BD0000F5
:100BD0002DE9F04786B005460E460024A24600BF28
:100BE000A1460027B08900B100BF2F462C8A4CF6E1
:100BF000FF700440F08804432C82AC894EF6F31059
:100C00000440B08831890843718908430443AC81AA
:100C1000AC8A4FF6FF400440B0890443AC8201A87F
:100C2000FFF7D2FC1F48874202D1DDF810A001E097
:100C3000DDF80CA0A88900F4004040B10AEBCA001E
:100C400000EB0A1031684900B0FBF1F807E00AEB4D
:100C5000CA0000EB0A1031688900B0FBF1F864208B
:100C6000B8FBF0F004012009642101FB1089A88978
:100C700000F4004040B1322000EBC900B0FBF1F0BD
:100C800000F00700044308E0322000EB0910642163
:100C9000B0FBF1F000F00F0004432C8106B0BDE87A
:100CA000F08700000038014001468888C0F3080042
:100CB0007047C1F308028280704700BFFEE7000062
:100CC000014A024900F013B8110D0008200000206D
:100CD00002E008C8121F08C1002AFAD17047704705
:100CE000002001E001C1121F002AFBD170472DE94D
:100CF000F04116460F460446002503E03946B0474A
:100D0000641C6D1C20780028F8D12846BDE8F081CD
:100D100070B504460D46E0B2FFF79CFD204670BD5D
:100D2000FFF766FEFFF776FB0BE00648FFF754FB84
:100D30000549087008460078012802D103A0FFF792
:100D4000BFFFF2E716000020150000207265636502
:100D5000697665207375636365737366756C6C790A
:100D60000D0A00003443101001344310100100003C
:100D7000900D00080000002024000000D00C0008A6
:100D8000B40D00082400002034040000E00C00082A
:100D90000000000001020304010203040607080921
:100DA0000204060800000000000001020304000025
:040DB000000000003F
:04000005080000ED02
:00000001FF
