:020000040800F2
:100000006807002055020008AB020008A3020008A0
:10001000A70200089D02000801050008000000007A
:100020000000000000000000000000009D0100082A
:10003000A102000800000000F10100089903000877
:100040006F0200086F0200086F0200086F020008CC
:100050006F0200086F0200086F0200086F020008BC
:100060006F0200086F0200086F0200086F020008AC
:100070006F0200086F0200086F0200086F0200089C
:100080006F0200086F0200086F0200086F0200088C
:100090006F0200086F0200086F0200086F0200087C
:1000A0006F0200086F0200086F0200086F0200086C
:1000B000090400086F0200086F0200086F020008C0
:1000C0006F0200086F0200086F0200086F0200084C
:1000D0006F020008550400086F0200086F02000854
:1000E0006F0200086F0200086F0200086F0200082C
:1000F0006F0200086F0200086F0200086F0200081C
:100100006F0200086F0200086F0200086F0200080B
:100110006F0200086F0200086F0200086F020008FB
:100120006F0200086F0200086F0200086F020008EB
:100130006F0200086F0200086F0200086F020008DB
:100140006F0200086F0200086F0200086F020008CB
:100150006F0200086F0200086F0200086F020008BB
:100160006F0200086F0200086F0200086F020008AB
:100170006F0200086F0200086F0200086F0200089B
:100180006F0200086F020008DFF80CD000F074F86E
:100190000048004723050008680700202A4B19681B
:1001A0000868B0E8F04F80F30988BFF36F8F4FF015
:1001B000000080F3118870470000000006480068C6
:1001C000006880F3088862B661B6BFF34F8FBFF353
:1001D0006F8F00DF00BF00BF08ED00E0DFF80C000C
:1001E000016841F470010160704700BF88ED00E0D4
:1001F000EFF30980BFF36F8F134B1A681EF0100FD7
:1002000008BF20ED108A20E9F04F106008B44FF0CD
:10021000500080F31188BFF34F8FBFF36F8F00F052
:10022000BDF94FF0000080F3118808BC1968086818
:10023000B0E8F04F1EF0100F08BFB0EC108A80F34A
:100240000988BFF36F8F704700000020EFF305802F
:10025000704700000648804706480047FEE7FEE773
:10026000FEE7FEE7FEE7FEE7FEE7FEE7FEE7FEE766
:10027000A103000889010008064C074D06E0E0686C
:1002800040F0010394E8070098471034AC42F6D3DD
:10029000FFF77EFF8C070008AC07000800BFFEE7F1
:1002A000704700BFFEE700BFFEE770470CB50020B7
:1002B000019000903448006840F480303249086072
:1002C00000BF3148006800F4003000900198401CE5
:1002D0000190009818B90198B0F5A04FF1D12A48C3
:1002E000006800F4003010B10120009001E000200F
:1002F00000900098012846D123484030006840F023
:1003000080502149403108602048006840F4404056
:100310001E4908601C48083000681B490831086005
:100320000846006840F4004008600846006840F451
:10033000A05008601648091F0860081F006840F0B8
:100340008070091F086000BF0F48006800F000704F
:100350000028F9D040F205700E4908600A480830BC
:10036000006820F00300084908310860084600686A
:1003700040F00200086000BF03480830006800F049
:100380000C000828F8D10CBD003802400070004075
:1003900008544007003C024010B500F04FF910BD72
:1003A00010B51548006840F4700013490860134800
:1003B000006840F001001149086000200F49083131
:1003C00008600E4800680E4908400C4908600D4856
:1003D000091D0860081F006820F48020091F0860BC
:1003E000002006490C310860FFF760FF4FF0006005
:1003F00001498039086010BD88ED00E000380240F6
:10040000FFFFF6FE1030002410B50121880700F030
:1004100010F840B10121880700F008F80248006890
:10042000401C0149086010BD44000020CA430282FC
:10043000704730B50246002000230024158A05EAE3
:100440000103958905EA010413B10CB1012000E014
:10045000002030BD10B540F22551084800F021F8C9
:10046000012809D1054800F046F80549087040F216
:100470002551024800F006F810BD000000100140B0
:100480003003002010B50022002340F66A14A14278
:1004900000D100BF0A1201249440A3B2DC430480BF
:1004A00010BD70B50246002400230025002040F650
:1004B0006A16B14200D100BFC1F3421501F01F031B
:1004C000012606FA03F3012D02D19689334006E096
:1004D000022D02D1168A334001E0968A33400C1275
:1004E000012606FA04F41688344013B10CB1012039
:1004F00000E0002070BD01468888C0F30800704706
:1005000000BFFEE702E008C8121F08C1002AFAD1A6
:1005100070477047002001E001C1121F002AFBD183
:10052000704700BFFEE700000A490968096809B979
:10053000012100E0002121B14FF0FF31064A116096
:1005400006E004490968C968C868034A416811603F
:1005500070470000040000203000002001460A69B6
:10056000D1E901309860D1E90103586050688842B0
:1005700001D188685060002008611068401E10603A
:100580001068704742684A6093688B60936859604E
:100590009160086103685B1C036070471F48006836
:1005A00018B101201E49086037E000201C4908608E
:1005B0001C4800681C490860084600681B49096817
:1005C00088420BD91A49096801F14C00C96C164AD6
:1005D0001268164B1B68D21A114401601248006859
:1005E0001249086013480068B0FA80F0C0F11F019A
:1005F00001EB8102104B03EB8200426852684260BB
:1006000000F108024368934202D142685268426096
:100610004268D268064B1A6000BF7047380000205D
:100620002400002048000020400000203C00002062
:1006300000000020180000204C00002010B500BF72
:10064000502080F31188BFF34F8FBFF36F8F00BF2F
:1006500000F00EF818B14FF080500449086000BF58
:10066000002080F3118800BF10BD000004ED00E001
:100670002DE9F04100273A480068002863D1394845
:100680000068451C374805608DB93748D0F80080B0
:1006900036480068344908603448C0F8008034485F
:1006A0000068401C32490860FFF73EFF00BF314838
:1006B000006885423BD300BF2B480068006808B93A
:1006C000012000E0002020B14FF0FF3029490860F0
:1006D0002CE025480068C068C4686668B54202D24C
:1006E0002448066022E0201DFFF738FFA06A18B1F9
:1006F00004F11800FFF732FF94F82C100120884015
:100700001D49096808431C490860E16A01EB810141
:100710001A4A02EB8100211DFFF734FF1849E06AF5
:100720000968C96A8842C7D30127C5E700BF1448D2
:100730000068C06A00EB8000104951F820000128D1
:1007400000D9012704E00F480068401C0D490860EB
:100750000D48006800B101273846BDE8F08100006F
:1007600038000020140000200400002008000020B1
:100770002800002030000020180000204C0000203D
:10078000000000202000002024000020AC0700080A
:10079000000000204C00000004050008F8070008D5
:1007A0004C0000201C070000140500080000000099
:1007B0000000000000000000000000000000000039
:1007C0000000000000000000000000000000000029
:1007D0000000000000000000000000000000000019
:1007E0000000000000000000000000000000000009
:0807F000000000000000000001
:040000050800018965
:00000001FF
